:020000040800F2
:1000000060060020B1010008B9010008BB0100082A
:10001000BD010008BF010008C10100080000000088
:10002000000000000000000000000000C301000804
:10003000C501000800000000C7010008C901000850
:10004000CB010008CB010008CB010008CB01000860
:10005000CB010008CB010008CB010008CB01000850
:10006000FF020008170300082F030008CB01000857
:10007000CB010008CB010008CB010008CB01000830
:10008000CB010008CB010008CB010008CB01000820
:10009000CB010008CB010008CB010008CB01000810
:1000A000CB010008CB010008CB010008CB01000800
:1000B000CB010008CB010008CB010008CB010008F0
:1000C000CB010008CB010008CB010008CB010008E0
:1000D000CB010008CB010008CB010008CB010008D0
:1000E000CB010008CB010008CB010008CB010008C0
:1000F000CB010008CB010008CB010008CB010008B0
:10010000CB010008CB010008CB010008CB0100089F
:10011000CB010008CB010008CB010008CB0100088F
:10012000CB010008CB010008CB010008CB0100087F
:1001300000F002F800F02CF80AA090E8000C8244CD
:100140008344AAF10107DA4501D100F021F8AFF2AA
:10015000090EBAE80F0013F0010F18BFFB1A43F0A5
:10016000010318470C0700001C07000000230024AF
:1001700000250026103A28BF78C1FBD8520728BFB7
:1001800030C148BF0B6070471FB51FBD10B510BD13
:1001900000F031F81146FFF7F7FF00F055FB00F0D3
:1001A0004FF803B4FFF7F2FF03BC00F057F800006C
:1001B0000948804709480047FEE7FEE7FEE7FEE7FB
:1001C000FEE7FEE7FEE7FEE7FEE7FEE70448054937
:1001D000054A064B704700008107000831010008FE
:1001E0006000002060060020600200206002002005
:1001F000704770477047754600F02CF8AE46050012
:100200006946534620F00700854618B020B5FFF731
:10021000DDFFBDE820404FF000064FF000074FF033
:1002200000084FF0000B21F00701AC46ACE8C00914
:10023000ACE8C009ACE8C009ACE8C0098D4670471D
:1002400010B50446AFF300802046BDE81040FFF72C
:10025000A8BF000000487047000000200149182096
:10026000ABBEFEE7260002007047000010B54FF459
:100270008071084800F091F90446012C04D1010274
:10028000044800F093F904E04FF48071014800F055
:100290008FF910BD000C014008B50121082000F0C5
:1002A000EBF94FF48070ADF8000010208DF80300DA
:1002B00001208DF802006946044800F0E3F84FF48D
:1002C0008071024800F072F908BD0000000C014086
:1002D00010B500F0ADF900F06DF900F032F8FFF75D
:1002E000DBFF10BD002107E0002200E0521C42F6B7
:1002F000E0639A42FAD3491C8142F5D3704710B5A6
:100300000121002000F070F9042000F04BF80820D3
:1003100000F066FA10BD10B50121002000F064F96C
:10032000082000F03FF8092000F05AFA10BD10B57F
:10033000FFF79CFF102000F035F80A2000F050FA7B
:1003400010BD1CB50221042000F07CF8032104201C
:1003500000F078F80421084600F074F81C200090A2
:1003600000208DF804000C208DF8050001208DF888
:100370000600684600F01CF8082000F03FFA09204B
:1003800000F03CFA0A2000F039FA0521082000F0BC
:1003900047FA0621092000F043FA07210A2000F05D
:1003A0003FFA1CBD01490860704700001404014079
:1003B000002123498279002A3AD00A46126803684C
:1003C0009A430B461A600A1D126803689A430B1D74
:1003D0001A60027911440A6803681A430A60184ACD
:1003E0000832126803689A43154B08331A601A1DC5
:1003F000126803689A43124B0C331A604279102A30
:100400000ED11A1F126803681A430D4B08331A6085
:100410001A1D126803681A43094B0C331A600DE069
:100420000749427911440A6803681A430A6005E0E3
:10043000027911440A6803689A430A607047000011
:100440000004014030B500228B071C0F0F2303FA74
:1004500004F20B4B8C1053F824309343084C8D104E
:1004600044F8253023468C1053F824308C07240F91
:1004700000FA04F42343024C8D1044F8253030BDBB
:10048000080001402DE9F041024600250026002029
:1004900000230024002791F803C00CF00F0591F809
:1004A00003C00CF0100CBCF1000F03D091F802C097
:1004B0004CEA050591F800C0BCF1000F31D014687A
:1004C00000202BE04FF0010C0CFA00F3B1F800C053
:1004D0000CEA03069E4220D183004FF00F0C0CFA69
:1004E00003F7BC4305FA03FC4CEA040491F803C08B
:1004F000BCF1280F06D14FF0010C0CFA00FCC2F839
:1005000014C00AE091F803C0BCF1480F05D14FF0C8
:10051000010C0CFA00FCC2F810C0401C0828D1D312
:100520001460B1F800C0BCF1FF0F34DD5468002046
:100530002EE000F1080C4FF0010808FA0CF3B1F8B6
:1005400000C00CEA03069E4221D183004FF00F0C3D
:100550000CFA03F7BC4305FA03FC4CEA040491F8D7
:1005600003C0BCF1280F05D100F1080C08FA0CF803
:10057000C2F8148091F803C0BCF1480F07D100F114
:10058000080C4FF0010808FA0CF8C2F81080401C63
:100590000828CED35460BDE8F08102460020D3681D
:1005A0000B400BB1012000E0002070474161704713
:1005B0000161704708B50121412000F05DF81C2061
:1005C000ADF8000048208DF8030001208DF80200EE
:1005D00069460448FFF756FF1C210248FFF7E8FF71
:1005E00008BD00000018014070B505460C4615B165
:1005F000012D16D10AE024B920210B48FFF7D6FFC0
:1006000003E020210848FFF7D3FF0BE024B92021A5
:100610000648FFF7CBFF03E020210448FFF7C8FF9F
:1006200000E000BF00BF70BD000C01400018014099
:1006300008B50121482000F01FF82020ADF8000087
:1006400010208DF8030003208DF802006946084849
:10065000FFF718FF2020ADF8000010208DF80300F0
:1006600003208DF8020069460248FFF70BFF08BD22
:10067000000C01400018014029B1064A926902436A
:10068000044B9A6104E0034A92698243014B9A61E8
:10069000704700000010024010B500F001F810BDD6
:1006A0000CB50020019000903348006840F4803081
:1006B0003149086000BF3048006800F40030009005
:1006C0000198401C0190009818B90198B0F5A06FEE
:1006D000F1D12948006800F4003010B101200090E9
:1006E00001E0002000900098012843D123480068D1
:1006F00040F01000214908600846006820F003001F
:1007000008600846006840F0020008601A48406827
:10071000194948600846406848600846406840F407
:10072000806048600846406820F47C1048600846B5
:10073000406840F4E81048600846006840F0807067
:10074000086000BF0C48006800F000700028F9D075
:100750000948406820F0030007494860084640689F
:1007600040F00200486000BF0348406800F00C0001
:100770000828F9D10CBD0000001002400020024002
:1007800010B51348006840F00100114908600846A0
:100790004068104908400E494860084600680E4904
:1007A00008400B4908600846006820F48020086073
:1007B0000846406820F4FE0048604FF41F0088603F
:1007C000FFF76AFF4FF000600449086010BD0000A9
:1007D000001002400000FFF8FFFFF6FE08ED00E009
:1007E000002807DB00F01F0201219140024A430963
:1007F00042F823107047000080E200E000280DDB83
:1008000000BF00BF00F01F02012191404209920089
:1008100002F1E022C2F8001100BF00BF70470000E3
:1008200010B5002804DB0A07130E054A135406E02E
:100830000A07140E034A00F00F031B1FD45410BD07
:1008400000E400E018ED00E0FFF742FD00BF0021EA
:100850000120FFF7C9FE4FF4FA70FFF743FD0121B5
:100860000846FFF7C1FE4FF4FA70FFF73BFDEEE7D5
:100870008008000800000020600600006C010008ED
:0400000508000131BD
:00000001FF
